{
  "contractName": "asset",
  "abi": [
    {
      "inputs": [],
      "payable": false,
      "stateMutability": "nonpayable",
      "type": "constructor"
    },
    {
      "constant": true,
      "inputs": [],
      "name": "creatorAdmin",
      "outputs": [
        {
          "internalType": "address",
          "name": "",
          "type": "address"
        }
      ],
      "payable": false,
      "stateMutability": "view",
      "type": "function"
    },
    {
      "constant": true,
      "inputs": [
        {
          "internalType": "uint256",
          "name": "",
          "type": "uint256"
        }
      ],
      "name": "propOwnerChange",
      "outputs": [
        {
          "internalType": "address",
          "name": "",
          "type": "address"
        }
      ],
      "payable": false,
      "stateMutability": "view",
      "type": "function"
    },
    {
      "constant": true,
      "inputs": [
        {
          "internalType": "uint256",
          "name": "",
          "type": "uint256"
        }
      ],
      "name": "properties",
      "outputs": [
        {
          "internalType": "enum asset.Status",
          "name": "status",
          "type": "uint8"
        },
        {
          "internalType": "uint256",
          "name": "value",
          "type": "uint256"
        },
        {
          "internalType": "address",
          "name": "currOwner",
          "type": "address"
        }
      ],
      "payable": false,
      "stateMutability": "view",
      "type": "function"
    },
    {
      "constant": true,
      "inputs": [
        {
          "internalType": "address",
          "name": "",
          "type": "address"
        }
      ],
      "name": "users",
      "outputs": [
        {
          "internalType": "int256",
          "name": "",
          "type": "int256"
        }
      ],
      "payable": false,
      "stateMutability": "view",
      "type": "function"
    },
    {
      "constant": true,
      "inputs": [
        {
          "internalType": "address",
          "name": "",
          "type": "address"
        }
      ],
      "name": "verifiedUsers",
      "outputs": [
        {
          "internalType": "bool",
          "name": "",
          "type": "bool"
        }
      ],
      "payable": false,
      "stateMutability": "view",
      "type": "function"
    },
    {
      "constant": false,
      "inputs": [
        {
          "internalType": "uint256",
          "name": "_propId",
          "type": "uint256"
        },
        {
          "internalType": "uint256",
          "name": "_value",
          "type": "uint256"
        },
        {
          "internalType": "address",
          "name": "_owner",
          "type": "address"
        }
      ],
      "name": "createProperty",
      "outputs": [
        {
          "internalType": "bool",
          "name": "",
          "type": "bool"
        }
      ],
      "payable": false,
      "stateMutability": "nonpayable",
      "type": "function"
    },
    {
      "constant": false,
      "inputs": [
        {
          "internalType": "uint256",
          "name": "_propId",
          "type": "uint256"
        }
      ],
      "name": "approveProperty",
      "outputs": [
        {
          "internalType": "bool",
          "name": "",
          "type": "bool"
        }
      ],
      "payable": false,
      "stateMutability": "nonpayable",
      "type": "function"
    },
    {
      "constant": false,
      "inputs": [
        {
          "internalType": "uint256",
          "name": "_propId",
          "type": "uint256"
        }
      ],
      "name": "rejectProperty",
      "outputs": [
        {
          "internalType": "bool",
          "name": "",
          "type": "bool"
        }
      ],
      "payable": false,
      "stateMutability": "nonpayable",
      "type": "function"
    },
    {
      "constant": false,
      "inputs": [
        {
          "internalType": "uint256",
          "name": "_propId",
          "type": "uint256"
        },
        {
          "internalType": "address",
          "name": "_newOwner",
          "type": "address"
        }
      ],
      "name": "changeOwnership",
      "outputs": [
        {
          "internalType": "bool",
          "name": "",
          "type": "bool"
        }
      ],
      "payable": false,
      "stateMutability": "nonpayable",
      "type": "function"
    },
    {
      "constant": false,
      "inputs": [
        {
          "internalType": "uint256",
          "name": "_propId",
          "type": "uint256"
        }
      ],
      "name": "approveChangeOwnership",
      "outputs": [
        {
          "internalType": "bool",
          "name": "",
          "type": "bool"
        }
      ],
      "payable": false,
      "stateMutability": "nonpayable",
      "type": "function"
    },
    {
      "constant": false,
      "inputs": [
        {
          "internalType": "uint256",
          "name": "_propId",
          "type": "uint256"
        },
        {
          "internalType": "uint256",
          "name": "_newValue",
          "type": "uint256"
        }
      ],
      "name": "changeValue",
      "outputs": [
        {
          "internalType": "bool",
          "name": "",
          "type": "bool"
        }
      ],
      "payable": false,
      "stateMutability": "nonpayable",
      "type": "function"
    },
    {
      "constant": true,
      "inputs": [
        {
          "internalType": "uint256",
          "name": "_propId",
          "type": "uint256"
        }
      ],
      "name": "getPropertyDetails",
      "outputs": [
        {
          "internalType": "enum asset.Status",
          "name": "",
          "type": "uint8"
        },
        {
          "internalType": "uint256",
          "name": "",
          "type": "uint256"
        },
        {
          "internalType": "address",
          "name": "",
          "type": "address"
        }
      ],
      "payable": false,
      "stateMutability": "view",
      "type": "function"
    },
    {
      "constant": false,
      "inputs": [
        {
          "internalType": "address",
          "name": "_newUser",
          "type": "address"
        }
      ],
      "name": "addNewUser",
      "outputs": [
        {
          "internalType": "bool",
          "name": "",
          "type": "bool"
        }
      ],
      "payable": false,
      "stateMutability": "nonpayable",
      "type": "function"
    },
    {
      "constant": false,
      "inputs": [
        {
          "internalType": "address",
          "name": "_newAdmin",
          "type": "address"
        }
      ],
      "name": "addNewAdmin",
      "outputs": [
        {
          "internalType": "bool",
          "name": "",
          "type": "bool"
        }
      ],
      "payable": false,
      "stateMutability": "nonpayable",
      "type": "function"
    },
    {
      "constant": false,
      "inputs": [
        {
          "internalType": "address",
          "name": "_newSuperAdmin",
          "type": "address"
        }
      ],
      "name": "addNewSuperAdmin",
      "outputs": [
        {
          "internalType": "bool",
          "name": "",
          "type": "bool"
        }
      ],
      "payable": false,
      "stateMutability": "nonpayable",
      "type": "function"
    },
    {
      "constant": false,
      "inputs": [
        {
          "internalType": "address",
          "name": "_newUser",
          "type": "address"
        }
      ],
      "name": "approveUsers",
      "outputs": [
        {
          "internalType": "bool",
          "name": "",
          "type": "bool"
        }
      ],
      "payable": false,
      "stateMutability": "nonpayable",
      "type": "function"
    }
  ],
  "bytecode": "0x608060405234801561001057600080fd5b50336000806101000a81548173ffffffffffffffffffffffffffffffffffffffff021916908373ffffffffffffffffffffffffffffffffffffffff16021790555060038060008060009054906101000a900473ffffffffffffffffffffffffffffffffffffffff1673ffffffffffffffffffffffffffffffffffffffff1673ffffffffffffffffffffffffffffffffffffffff168152602001908152602001600020819055506001600460008060009054906101000a900473ffffffffffffffffffffffffffffffffffffffff1673ffffffffffffffffffffffffffffffffffffffff1673ffffffffffffffffffffffffffffffffffffffff16815260200190815260200160002060006101000a81548160ff0219169083151502179055506118188061013e6000396000f3fe608060405234801561001057600080fd5b50600436106101005760003560e01c80639448f03d11610097578063e35fe36611610066578063e35fe3661461057b578063e9b66f8c146105d7578063eeb294e21461061d578063f7b108081461066357610100565b80639448f03d146103e95780639c4ea46a14610459578063a87430ba146104c7578063c1d5e84f1461051f57610100565b80634c82d0e4116100d35780634c82d0e41461028d5780637b855bf0146102e95780638709b2e71461033357806389b3887e1461038357610100565b80630a1b10e114610105578063126dbe431461016157806327983fcf146101eb57806332282f8e14610231575b600080fd5b6101476004803603602081101561011b57600080fd5b81019080803573ffffffffffffffffffffffffffffffffffffffff1690602001909291905050506106ed565b604051808215151515815260200191505060405180910390f35b61018d6004803603602081101561017757600080fd5b8101908080359060200190929190505050610886565b6040518084600381111561019d57fe5b60ff1681526020018381526020018273ffffffffffffffffffffffffffffffffffffffff1673ffffffffffffffffffffffffffffffffffffffff168152602001935050505060405180910390f35b6102176004803603602081101561020157600080fd5b810190808035906020019092919050505061090a565b604051808215151515815260200191505060405180910390f35b6102736004803603602081101561024757600080fd5b81019080803573ffffffffffffffffffffffffffffffffffffffff169060200190929190505050610a5c565b604051808215151515815260200191505060405180910390f35b6102cf600480360360208110156102a357600080fd5b81019080803573ffffffffffffffffffffffffffffffffffffffff169060200190929190505050610bac565b604051808215151515815260200191505060405180910390f35b6102f1610d44565b604051808273ffffffffffffffffffffffffffffffffffffffff1673ffffffffffffffffffffffffffffffffffffffff16815260200191505060405180910390f35b6103696004803603604081101561034957600080fd5b810190808035906020019092919080359060200190929190505050610d69565b604051808215151515815260200191505060405180910390f35b6103cf6004803603604081101561039957600080fd5b8101908080359060200190929190803573ffffffffffffffffffffffffffffffffffffffff169060200190929190505050610e6c565b604051808215151515815260200191505060405180910390f35b61043f600480360360608110156103ff57600080fd5b810190808035906020019092919080359060200190929190803573ffffffffffffffffffffffffffffffffffffffff16906020019092919050505061106d565b604051808215151515815260200191505060405180910390f35b6104856004803603602081101561046f57600080fd5b8101908080359060200190929190505050611241565b604051808273ffffffffffffffffffffffffffffffffffffffff1673ffffffffffffffffffffffffffffffffffffffff16815260200191505060405180910390f35b610509600480360360208110156104dd57600080fd5b81019080803573ffffffffffffffffffffffffffffffffffffffff169060200190929190505050611274565b6040518082815260200191505060405180910390f35b6105616004803603602081101561053557600080fd5b81019080803573ffffffffffffffffffffffffffffffffffffffff16906020019092919050505061128c565b604051808215151515815260200191505060405180910390f35b6105bd6004803603602081101561059157600080fd5b81019080803573ffffffffffffffffffffffffffffffffffffffff169060200190929190505050611427565b604051808215151515815260200191505060405180910390f35b610603600480360360208110156105ed57600080fd5b8101908080359060200190929190505050611447565b604051808215151515815260200191505060405180910390f35b6106496004803603602081101561063357600080fd5b8101908080359060200190929190505050611599565b604051808215151515815260200191505060405180910390f35b61068f6004803603602081101561067957600080fd5b810190808035906020019092919050505061178c565b6040518084600381111561069f57fe5b60ff1681526020018381526020018273ffffffffffffffffffffffffffffffffffffffff1673ffffffffffffffffffffffffffffffffffffffff168152602001935050505060405180910390f35b600060038060003373ffffffffffffffffffffffffffffffffffffffff1673ffffffffffffffffffffffffffffffffffffffff168152602001908152602001600020541480156107865750600460003373ffffffffffffffffffffffffffffffffffffffff1673ffffffffffffffffffffffffffffffffffffffff16815260200190815260200160002060009054906101000a900460ff165b61078f57600080fd5b6000600360008473ffffffffffffffffffffffffffffffffffffffff1673ffffffffffffffffffffffffffffffffffffffff16815260200190815260200160002054146107db57600080fd5b60001515600460008473ffffffffffffffffffffffffffffffffffffffff1673ffffffffffffffffffffffffffffffffffffffff16815260200190815260200160002060009054906101000a900460ff1615151461083857600080fd5b6002600360008473ffffffffffffffffffffffffffffffffffffffff1673ffffffffffffffffffffffffffffffffffffffff1681526020019081526020016000208190555060019050919050565b60008060006001600085815260200190815260200160002060000160009054906101000a900460ff1660016000868152602001908152602001600020600101546001600087815260200190815260200160002060020160009054906101000a900473ffffffffffffffffffffffffffffffffffffffff169250925092509193909250565b600060038060003373ffffffffffffffffffffffffffffffffffffffff1673ffffffffffffffffffffffffffffffffffffffff168152602001908152602001600020541480156109a35750600460003373ffffffffffffffffffffffffffffffffffffffff1673ffffffffffffffffffffffffffffffffffffffff16815260200190815260200160002060009054906101000a900460ff165b6109ac57600080fd5b3373ffffffffffffffffffffffffffffffffffffffff166001600084815260200190815260200160002060020160009054906101000a900473ffffffffffffffffffffffffffffffffffffffff1673ffffffffffffffffffffffffffffffffffffffff161415610a1b57600080fd5b60036001600084815260200190815260200160002060000160006101000a81548160ff02191690836003811115610a4e57fe5b021790555060019050919050565b600060038060003373ffffffffffffffffffffffffffffffffffffffff1673ffffffffffffffffffffffffffffffffffffffff16815260200190815260200160002054148015610af55750600460003373ffffffffffffffffffffffffffffffffffffffff1673ffffffffffffffffffffffffffffffffffffffff16815260200190815260200160002060009054906101000a900460ff165b610afe57600080fd5b6000600360008473ffffffffffffffffffffffffffffffffffffffff1673ffffffffffffffffffffffffffffffffffffffff168152602001908152602001600020541415610b4b57600080fd5b6001600460008473ffffffffffffffffffffffffffffffffffffffff1673ffffffffffffffffffffffffffffffffffffffff16815260200190815260200160002060006101000a81548160ff02191690831515021790555060019050919050565b600060038060003373ffffffffffffffffffffffffffffffffffffffff1673ffffffffffffffffffffffffffffffffffffffff16815260200190815260200160002054148015610c455750600460003373ffffffffffffffffffffffffffffffffffffffff1673ffffffffffffffffffffffffffffffffffffffff16815260200190815260200160002060009054906101000a900460ff165b610c4e57600080fd5b6000600360008473ffffffffffffffffffffffffffffffffffffffff1673ffffffffffffffffffffffffffffffffffffffff1681526020019081526020016000205414610c9a57600080fd5b60001515600460008473ffffffffffffffffffffffffffffffffffffffff1673ffffffffffffffffffffffffffffffffffffffff16815260200190815260200160002060009054906101000a900460ff16151514610cf757600080fd5b60038060008473ffffffffffffffffffffffffffffffffffffffff1673ffffffffffffffffffffffffffffffffffffffff1681526020019081526020016000208190555060019050919050565b6000809054906101000a900473ffffffffffffffffffffffffffffffffffffffff1681565b6000823373ffffffffffffffffffffffffffffffffffffffff166001600083815260200190815260200160002060020160009054906101000a900473ffffffffffffffffffffffffffffffffffffffff1673ffffffffffffffffffffffffffffffffffffffff1614610dda57600080fd5b600073ffffffffffffffffffffffffffffffffffffffff166002600086815260200190815260200160002060009054906101000a900473ffffffffffffffffffffffffffffffffffffffff1673ffffffffffffffffffffffffffffffffffffffff1614610e4657600080fd5b826001600086815260200190815260200160002060010181905550600191505092915050565b6000823373ffffffffffffffffffffffffffffffffffffffff166001600083815260200190815260200160002060020160009054906101000a900473ffffffffffffffffffffffffffffffffffffffff1673ffffffffffffffffffffffffffffffffffffffff1614610edd57600080fd5b82600460008273ffffffffffffffffffffffffffffffffffffffff1673ffffffffffffffffffffffffffffffffffffffff16815260200190815260200160002060009054906101000a900460ff16610f3457600080fd5b8373ffffffffffffffffffffffffffffffffffffffff166001600087815260200190815260200160002060020160009054906101000a900473ffffffffffffffffffffffffffffffffffffffff1673ffffffffffffffffffffffffffffffffffffffff161415610fa357600080fd5b600073ffffffffffffffffffffffffffffffffffffffff166002600087815260200190815260200160002060009054906101000a900473ffffffffffffffffffffffffffffffffffffffff1673ffffffffffffffffffffffffffffffffffffffff161461100f57600080fd5b836002600087815260200190815260200160002060006101000a81548173ffffffffffffffffffffffffffffffffffffffff021916908373ffffffffffffffffffffffffffffffffffffffff16021790555060019250505092915050565b60006002600360003373ffffffffffffffffffffffffffffffffffffffff1673ffffffffffffffffffffffffffffffffffffffff16815260200190815260200160002054121580156111085750600460003373ffffffffffffffffffffffffffffffffffffffff1673ffffffffffffffffffffffffffffffffffffffff16815260200190815260200160002060009054906101000a900460ff165b61111157600080fd5b81600460008273ffffffffffffffffffffffffffffffffffffffff1673ffffffffffffffffffffffffffffffffffffffff16815260200190815260200160002060009054906101000a900460ff1661116857600080fd5b60405180606001604052806001600381111561118057fe5b81526020018581526020018473ffffffffffffffffffffffffffffffffffffffff168152506001600087815260200190815260200160002060008201518160000160006101000a81548160ff021916908360038111156111dc57fe5b02179055506020820151816001015560408201518160020160006101000a81548173ffffffffffffffffffffffffffffffffffffffff021916908373ffffffffffffffffffffffffffffffffffffffff16021790555090505060019150509392505050565b60026020528060005260406000206000915054906101000a900473ffffffffffffffffffffffffffffffffffffffff1681565b60036020528060005260406000206000915090505481565b60006002600360003373ffffffffffffffffffffffffffffffffffffffff1673ffffffffffffffffffffffffffffffffffffffff16815260200190815260200160002054121580156113275750600460003373ffffffffffffffffffffffffffffffffffffffff1673ffffffffffffffffffffffffffffffffffffffff16815260200190815260200160002060009054906101000a900460ff165b61133057600080fd5b6000600360008473ffffffffffffffffffffffffffffffffffffffff1673ffffffffffffffffffffffffffffffffffffffff168152602001908152602001600020541461137c57600080fd5b60001515600460008473ffffffffffffffffffffffffffffffffffffffff1673ffffffffffffffffffffffffffffffffffffffff16815260200190815260200160002060009054906101000a900460ff161515146113d957600080fd5b6001600360008473ffffffffffffffffffffffffffffffffffffffff1673ffffffffffffffffffffffffffffffffffffffff1681526020019081526020016000208190555060019050919050565b60046020528060005260406000206000915054906101000a900460ff1681565b600060038060003373ffffffffffffffffffffffffffffffffffffffff1673ffffffffffffffffffffffffffffffffffffffff168152602001908152602001600020541480156114e05750600460003373ffffffffffffffffffffffffffffffffffffffff1673ffffffffffffffffffffffffffffffffffffffff16815260200190815260200160002060009054906101000a900460ff165b6114e957600080fd5b3373ffffffffffffffffffffffffffffffffffffffff166001600084815260200190815260200160002060020160009054906101000a900473ffffffffffffffffffffffffffffffffffffffff1673ffffffffffffffffffffffffffffffffffffffff16141561155857600080fd5b60026001600084815260200190815260200160002060000160006101000a81548160ff0219169083600381111561158b57fe5b021790555060019050919050565b600060038060003373ffffffffffffffffffffffffffffffffffffffff1673ffffffffffffffffffffffffffffffffffffffff168152602001908152602001600020541480156116325750600460003373ffffffffffffffffffffffffffffffffffffffff1673ffffffffffffffffffffffffffffffffffffffff16815260200190815260200160002060009054906101000a900460ff165b61163b57600080fd5b600073ffffffffffffffffffffffffffffffffffffffff166002600084815260200190815260200160002060009054906101000a900473ffffffffffffffffffffffffffffffffffffffff1673ffffffffffffffffffffffffffffffffffffffff1614156116a857600080fd5b6002600083815260200190815260200160002060009054906101000a900473ffffffffffffffffffffffffffffffffffffffff166001600084815260200190815260200160002060020160006101000a81548173ffffffffffffffffffffffffffffffffffffffff021916908373ffffffffffffffffffffffffffffffffffffffff16021790555060006002600084815260200190815260200160002060006101000a81548173ffffffffffffffffffffffffffffffffffffffff021916908373ffffffffffffffffffffffffffffffffffffffff16021790555060019050919050565b60016020528060005260406000206000915090508060000160009054906101000a900460ff16908060010154908060020160009054906101000a900473ffffffffffffffffffffffffffffffffffffffff1690508356fea265627a7a72315820cfa04416f1958a5d4a47530133c4bf92322af76f980036241d3b2a230776796a64736f6c63430005100032",
  "source": "pragma solidity ^0.5.0;\r\n\r\ncontract asset {\r\n\r\n    address public creatorAdmin;\r\n\tenum Status { NotExist, Pending, Approved, Rejected }\r\n\r\n\tstruct PropertyDetail {\r\n\t\tStatus status;\r\n\t\tuint value;\r\n\t\taddress currOwner;\r\n\t}\r\n\r\n\t\r\n\tmapping(uint => PropertyDetail) public properties;\r\n\tmapping(uint => address) public propOwnerChange;\r\n\r\n    mapping(address => int) public users;\r\n    mapping(address => bool) public verifiedUsers;\r\n\r\n\tmodifier onlyOwner(uint _propId) {\r\n\t\trequire(properties[_propId].currOwner == msg.sender);\r\n\t\t_;\r\n\t}\r\n\r\n\tmodifier verifiedUser(address _user) {\r\n\t    require(verifiedUsers[_user]);\r\n\t    _;\r\n\t}\r\n\r\n\tmodifier verifiedAdmin() {\r\n\t\trequire(users[msg.sender] >= 2 && verifiedUsers[msg.sender]);\r\n\t\t_;\r\n\t}\r\n\r\n\tmodifier verifiedSuperAdmin() {\r\n\t    require(users[msg.sender] == 3 && verifiedUsers[msg.sender]);\r\n\t    _;\r\n\t}\r\n\r\n\t\r\n     constructor  ()  public {\r\n\t\tcreatorAdmin = msg.sender;\r\n\t\tusers[creatorAdmin] = 3;\r\n\t\tverifiedUsers[creatorAdmin] = true;\r\n\t}\r\n\r\n\t\r\n function createProperty(uint _propId, uint _value, address _owner) verifiedAdmin verifiedUser(_owner) public returns (bool)  {\r\n\t\tproperties[_propId] = PropertyDetail(Status.Pending, _value, _owner);\r\n\t\treturn true;\r\n\t}\r\n\r\n\t\r\n    \tfunction approveProperty(uint _propId) verifiedSuperAdmin public returns (bool)  {\r\n\t\trequire(properties[_propId].currOwner != msg.sender);\r\n\t\tproperties[_propId].status = Status.Approved;\r\n\t\treturn true;\r\n\t}\r\n\r\n\t\r\n\t function rejectProperty(uint _propId) verifiedSuperAdmin public returns (bool)  {\r\n\t\trequire(properties[_propId].currOwner != msg.sender);\r\n\t\tproperties[_propId].status = Status.Rejected;\r\n\t\treturn true;\r\n\t}\r\n\r\n\t\r\n\tfunction changeOwnership(uint _propId, address _newOwner) onlyOwner(_propId) verifiedUser(_newOwner) public returns (bool)  {\r\n\t\trequire(properties[_propId].currOwner != _newOwner);\r\n\t\trequire(propOwnerChange[_propId] == address(0));\r\n\t\tpropOwnerChange[_propId] = _newOwner;\r\n\t\treturn true;\r\n\t}\r\n\r\n\t\r\n\t function approveChangeOwnership(uint _propId) verifiedSuperAdmin public returns (bool)  {\r\n\t    require(propOwnerChange[_propId] != address(0));\r\n\t    properties[_propId].currOwner = propOwnerChange[_propId];\r\n\t    propOwnerChange[_propId] = address(0);\r\n\t    return true;\r\n\t}\r\n\r\n\t\r\n     function changeValue(uint _propId, uint _newValue) onlyOwner(_propId) public returns (bool)  {\r\n        require(propOwnerChange[_propId] == address(0));\r\n        properties[_propId].value = _newValue;\r\n        return true;\r\n    }\r\n\r\n\t\r\n\t function getPropertyDetails(uint _propId) view public returns (Status, uint, address)  {\r\n\t\treturn (properties[_propId].status, properties[_propId].value, properties[_propId].currOwner);\r\n\t}\r\n\r\n\t\r\n\t function addNewUser(address _newUser) verifiedAdmin public returns (bool)  {\r\n\t    require(users[_newUser] == 0);\r\n\t    require(verifiedUsers[_newUser] == false);\r\n\t    users[_newUser] = 1;\r\n\t    return true;\r\n\t}\r\n\r\n\t\r\n\t function addNewAdmin(address _newAdmin) verifiedSuperAdmin public returns (bool)  {\r\n\t    require(users[_newAdmin] == 0);\r\n\t    require(verifiedUsers[_newAdmin] == false);\r\n\t    users[_newAdmin] = 2;\r\n\t    return true;\r\n\t}\r\n\r\n\t\r\n\t function addNewSuperAdmin(address _newSuperAdmin) verifiedSuperAdmin public returns (bool)  {\r\n\t    require(users[_newSuperAdmin] == 0);\r\n\t    require(verifiedUsers[_newSuperAdmin] == false);\r\n\t    users[_newSuperAdmin] = 3;\r\n\t    return true;\r\n\t}\r\n\r\n\t\r\n\t function approveUsers(address _newUser) verifiedSuperAdmin public returns (bool)  {\r\n\t    require(users[_newUser] != 0);\r\n\t    verifiedUsers[_newUser] = true;\r\n\t    return true;\r\n\t}\r\n}",
  "sourcePath": "C:/Users/Student/Desktop/Blockchain/contracts/asset.sol",
  "compiler": {
    "name": "solc",
    "version": "0.5.16+commit.9c3226ce.Emscripten.clang"
  },
  "schemaVersion": "3.3.4",
  "updatedAt": "2021-04-14T08:29:02.598Z",
  "devdoc": {
    "methods": {}
  },
  "userdoc": {
    "methods": {}
  }
}